:020000040800F2
:1000000028070020890100088714000887130008CA
:10001000851400081D0400083B16000800000000BD
:10002000000000000000000000000000D5150008DE
:10003000710500080000000089140008D7150008A9
:10004000A3010008A3010008A3010008A301000800
:10005000A3010008A3010008A3010008A3010008F0
:10006000A3010008A3010008A3010008A3010008E0
:10007000A3010008A3010008A3010008A3010008D0
:10008000A3010008A3010008A3010008A3010008C0
:10009000A3010008A3010008A3010008A3010008B0
:1000A000A3010008A3010008A3010008A3010008A0
:1000B000A3010008A3010008A3010008A301000890
:1000C000A3010008A3010008A3010008A301000880
:1000D000A3010008A3010008A3010008A301000870
:1000E000A3010008A3010008A301000800F002F822
:1000F00000F03AF80AA090E8000C82448344AAF188
:100100000107DA4501D100F02FF8AFF2090EBAE885
:100110000F0013F0010F18BFFB1A43F0010318473B
:100120001019000030190000103A24BF78C878C1B7
:10013000FAD8520724BF30C830C144BF04680C60ED
:10014000704700000023002400250026103A28BF35
:1001500078C1FBD8520728BF30C148BF0B60704739
:100160001FB51FBD10B510BD00F058F81146FFF7C0
:10017000F7FF01F073FA00F076F803B4FFF7F2FF2F
:1001800003BC00F07DF8000009488047094800479B
:10019000FEE7FEE7FEE7FEE7FEE7FEE7FEE7FEE737
:1001A000FEE7FEE704480549054A064B7047000094
:1001B00039160008ED00000828010020280700205B
:1001C00028030020280300204FF0000200B513464A
:1001D00094469646203922BFA0E80C50A0E80C5067
:1001E000B1F12001BFF4F7AF090728BFA0E80C5018
:1001F00048BF0CC05DF804EB890028BF40F8042B11
:1002000008BF704748BF20F8022B11F0804F18BF7D
:1002100000F8012B7047704770477047754600F033
:100220002BF8AE4605006946534620F00700854688
:1002300018B020B5FFF7B6FFBDE820404FF000062C
:100240004FF000074FF000084FF0000B21F00701BE
:10025000AC46ACE8C009ACE8C009ACE8C009ACE801
:10026000C0098D46704710B50446AFF300802046A4
:10027000BDE81040FFF781BF00487047C80000206C
:1002800001491820ABBEFEE72600020070472DE9A9
:10029000F0410C46804600F095F8642000F06CF9BF
:1002A00022780021404600F0ABF8627801214046F8
:1002B00000F0A6F8A2780221404600F0A1F8E2780A
:1002C0000321404600F09CF80A2000F055F9002177
:1002D000404600F021F807460121404600F01CF896
:1002E00006460221404600F017F805460321404625
:1002F00000F012F82178B9420BD16178B14208D1EF
:10030000A178A94205D1E178814202D10120BDE85E
:10031000F0810020FBE700000EB50022019209A247
:10032000022312680292202242EA81018DF808100D
:100330004FF47A71009101AA02A900F018FF9DF80C
:1003400005000EBD00FF00002DE9F8431D461646CE
:100350000F468046002409E0012000F00DF9641CDE
:10036000E4B2AC4202D30020BDE8F88331463846FF
:1003700000F004FA0128EFD06423032269464046C6
:1003800000F098FD9DF800009DF8011041EA002062
:100390009DF8021041EA002000020012E4E72DE976
:1003A000F0411F46DDE90645064600F015F83046E7
:1003B00000F01CF82B46224639463046BDE8F04195
:1003C000FFF7C2BF08B506218DF800106423012293
:1003D000694600F019FE08BD137823F0F0030B43C3
:1003E000D9B211700A46002100F00AB808B50821F8
:1003F0008DF8001064230122694600F005FE08BD57
:1004000008B5402343EA81018DF800108DF80120E2
:1004100064230222694600F0F7FD08BDFEE70000F4
:1004200038B51048C16941F48041C161C0690E4CC2
:1004300000F48040009000224FF40061204600F05C
:10044000A2F90022A115204600F09DF900F00EF857
:100450000A2000F091F800F029F8BDE838400A20A1
:1004600000F08AB8001002400008014038B50CA026
:100470000C4D00684FF4805400900022214628461D
:1004800000F081F94FF0FF3303226946064800F07F
:10049000BBFD01222146284600F075F938BD000059
:1004A00020000100000C01407000002038B50CA0B5
:1004B0000C4D00684FF480540090002221462846DD
:1004C00000F061F94FF0FF3303226946064800F05F
:1004D0009BFD01222146284600F055F938BD000059
:1004E00038000100000C01407000002008B51049E0
:1004F00010F1FF4F01D3002002E0884200DD0846E2
:1005000001F0E8F8102101F043FA01F0A5F9B0F587
:10051000803F01D34FF6FF7006A109680091010AE0
:100520008DF801108DF80200684600F005F808BD4E
:10053000000020401800000070B50B4E04464FF438
:10054000805500222946304600F01DF94FF0FF3358
:1005500003222146054800F057FD29463046BDE8F4
:100560007040012200F00FB9000C01407000002023
:10057000704772B6FEE7000070B5044600F008F957
:100580000546601C02D004480078044400F000F9DD
:10059000401BA042FAD370BD080000202DE9F84F9F
:1005A000DFF8B8910024A9F1040B23460F2709F1C5
:1005B000040AABF1040EC9E00125A5402A40AA4275
:1005C0007DD1674ED1F804C0ACEB0608B44532D0FB
:1005D00014DCBCF1030F3AD009DCBCF1000F2AD0C7
:1005E000BCF1010F1CD0BCF1020F31D11DE0BCF1F8
:1005F000110F17D0BCF1120F2AD119E0B8F5881FDE
:1006000019D006DCB8F5803F15D0B8F5801F1FD192
:1006100011E0B8F5001F0ED0B8F5041F18D10AE09C
:10062000CB6815E0CB681B1D12E0CB6808330FE0E8
:10063000CB680C330CE08B682BB1012B4FF0080317
:1006400003D0456104E0042302E0056100E00023DB
:10065000FF2A01D8064601E000F104064FEA8405AE
:1006600001D9A5F12005D6F8008007FA05FC28EA93
:100670000C0803FA05F548EA0508C6F800804D683D
:10068000ED0062D5374DAE6946F00106AE61AD6949
:1006900024F0030605F001050095334D06EB050C2B
:1006A000DCF80850A607360F07FA06F825EA080511
:1006B000DFF8B880404503D14FF0000817E044E070
:1006C000DFF8AC80404502D14FF001080FE0DFF8C1
:1006D000A480404502D14FF0020808E0DFF898807E
:1006E000404502D14FF0030801E04FF0040808FA3A
:1006F00006F848EA0508CCF808804D68D9F800608B
:10070000ED024D4601D5164300E096432E604D683C
:10071000DAF80060AD02554601D5164300E0964375
:100720002E604D68DBF80060AD035D4601D51643D1
:1007300000E096432E604D68DEF80060ED037546DC
:1007400001D5164300E096432E60641C0D682A46CE
:10075000E5407FF431AFBDE8F88F000008040140A8
:10076000000011100010024000000140000801408C
:10077000000C014000100140001401408068084056
:1007800000D0012070470AB1016170470904FBE7FE
:100790000148806870470000080000200248816816
:1007A000027811448160704708000020074810B5A6
:1007B000016841F010010160032000F067F80F208C
:1007C00000F006F800F024F8002010BD00200240E0
:1007D00070B50D4D04464FF47A712878B1FBF0F0F6
:1007E0000A490968B1FBF0F000F0B9FD48B9102CD6
:1007F00007D200222146501E00F028F800206C602D
:1008000070BD012070BD0000080000201400002011
:100810000C4808B5816941F001018161816901F0ED
:1008200001010091C16941F08051C161C06900F0CE
:10083000805000900448416821F0E06141F08061FF
:10084000416008BD0010024000000140F0B40E4BB2
:100850001B680C46C3F30223C3F10705042D00D91E
:100860000425191D072901D2002300E0DB1E012603
:1008700006FA05F1491E214099409E40761E164019
:100880003143F0BC00F0DABE0CED00E0064900F0A8
:10089000070208684FF6FF03184040EA0220034AA7
:1008A00010430860704700000CED00E00000FA05FE
:1008B0002DE9F0470F46050061D0434E306800F047
:1008C0000700B84209D2306820F007003843306092
:1008D000306800F00700B84251D128683B4C8107CE
:1008E00012D5400703D5606840F4E0606060287866
:1008F000000703D5606840F4605060606068A968D4
:1009000020F0F000084360602878C00728D06868AD
:10091000012810D02168022810D0890700292EDA7A
:10092000616821F0030101436160FFF731FF8046F8
:1009300041F288390DE021688903EFE78901EDE78D
:10094000FFF726FFA0EB0801494502D90320BDE8C7
:10095000F0876068696800F00C00B0EB810FEFD1A0
:10096000306800F00700B8420BD9306820F007006B
:1009700038433060306800F00700B84201D00120F1
:10098000E5E72878400705D56068E96820F4E0606D
:10099000084360602878000706D56068296920F45C
:1009A000605040EAC100606000F018F86168084AD1
:1009B000C1F30311515CC84006490860064800684D
:1009C000FFF706FF0020C2E70020024000100240AF
:1009D0001E1A0008140000200C0000200E4A516866
:1009E0000E4801F00C03042B11D0082B0FD10C483A
:1009F000C1F38343C903C05C0AD55168084AC1F3F7
:100A00004041921E515C054A5043B0FBF1F07047E3
:100A100004494843704700000010024000127A0069
:100A20000E1A000800093D002DE9F84F040070D0AF
:100A30002078C04DC00749D06868C0F38100012804
:100A400007D06868C0F38100022809D16868C00334
:100A500006D52868800339D560680028E7D035E0DE
:100A60006068B0F5803F0BD010B1B0F5A02F11D069
:100A7000286820F480302860286820F4802002E074
:100A8000286840F480302860606890B1FFF780FEED
:100A900006460AE0286840F480202860F0E700BF9E
:100AA000FFF776FE801B642873D828688003F7D58B
:100AB0000CE0FFF76DFE064605E000BFFFF768FE9D
:100AC000801B6428F0D828688003F7D420789A4ED9
:100AD00080074FF001094FF0000839D5686810F021
:100AE0000C0F07D06868C0F38100022809D168683C
:100AF000C00306D42868800714D52069012808D1CE
:100B000010E02069B0B1C6F80090FFF741FE07463B
:100B100005E00AE1FFF73CFEC01B0228C4D82868A4
:100B20008007F7D52868616920F0F80040EAC10025
:100B300028600DE0C6F80080FFF72AFE074604E0B3
:100B4000FFF726FEC01B022823D828688007F7D4A9
:100B5000207800072CD57948A169D9B1C0F8009058
:100B6000FFF716FE074604E0FFF712FEC01B02283F
:100B70000FD8686A8007F7D571484FF4FA510068BA
:100B8000B0FBF1F0009000BF0098411E0091FAD236
:100B90000EE080E0C0F80080FFF7FAFD074604E0B1
:100BA000FFF7F6FDC01B022875D8686A8007F7D4E6
:100BB0002078400760D5E8690027C00008D4E869BC
:100BC00040F08050E861E869012700F08050009013
:100BD0005C480168C90513D40168834641F48071FB
:100BE0000160FFF7D5FD824606E000BFFFF7D0FDAC
:100BF000A0EB0A0064284ED8DBF80000C005F5D54C
:100C0000E06801280AD008B1052813D0286A20F02E
:100C100001002862286A20F0040002E0286A40F0FF
:100C200001002862E06841F2883B98B1FFF7B0FD0F
:100C300082460BE0286A40F004002862EEE700BF1D
:100C4000FFF7A6FDA0EB0A0159455AD8286A80078C
:100C5000F6D50CE0FFF79CFD824605E0FFF798FD16
:100C6000A0EB0A0159454CD8286A8007F6D41FB179
:100C7000E86920F08050E861E06988B36968C1F3F1
:100C80008101022944D00228C6F8608004D0FFF711
:100C90007FFD044638E034E0FFF77AFD074604E0C4
:100CA000FFF776FDC01B02282BD828688001F7D4F7
:100CB000206AB0F5803F05D16868A16820F4003053
:100CC00008436860D4E908010843696821F4741195
:100CD00008436860C6F86090FFF75AFD044606E0D6
:100CE00025E000BFFFF754FD001B022809D8286843
:100CF0008001F7D51BE000BFFFF74AFD001B02286B
:100D000002D90320BDE8F88F28688001F4D40EE0F2
:100D10000128F7D06868226A00F48031914204D13A
:100D2000616A00F47010884201D00120EAE70020D7
:100D3000E8E7000000100240000042428004424206
:100D4000140000200070004070B5040009D0606AF3
:100D5000002540B125616561A56294F8510040B15C
:100D60000CE0012070BD6068B0F5827FF4D0E561D1
:100D7000F2E784F85050204600F040F8022084F852
:100D800051002068016821F040010160A08821899C
:100D900000F4827001F404410843A18901F4006168
:100DA0000843217C01F002010843217D01F001018B
:100DB0000843218B01F400710843217F01F03801C1
:100DC000084394F8201001F080010843218D01F4BC
:100DD0000051084321680860A069042101EA10401D
:100DE000216848602068C16921F40061C1616565BE
:100DF000012084F85100002070BD000030B585B09E
:100E000000240094019402940394254D036825481E
:100E100002210322AB421AD1836943F480538361D8
:100E2000836903F480530493836943F0040383616B
:100E300080691D4D00F004000490A020CDE9000160
:100E4000039269462846FFF7A9FB40201EE0174D94
:100E5000AB4222D1C36943F48043C361C36903F445
:100E600080430493836943F0080383618069104DD4
:100E700000F0080004904FF42040CDE900010392F7
:100E800069462846FFF78AFB4FF48040CDE900040D
:100E9000694628460294FFF781FB05B030BD00008B
:100EA00000300140001002400008014000380040BE
:100EB000000C01402DE9F84F044690F851001D4602
:100EC00016460F46012838D160684FF00408B0F587
:100ED000827F01D1A06830B3FFF75AFC8246002F11
:100EE00075D0002E73D094F85000012825D04FF013
:100EF000010984F8509084F851804FF00008C4F83C
:100F00005480A763A687E687C4F83080A4F83480AD
:100F1000A4F83680C4F84080C4F84480A068B0F5D6
:100F2000004F0CD015E084F85180009313460A4618
:100F3000204600F01CF9BDE8F88F0220FBE720688E
:100F4000016821F0400101602068016821F48041BE
:100F5000016020680168490603D4016841F040013E
:100F60000160E068C0B134E020688168C90709D039
:100F7000007BA16B0870A06B401CA063E08F401E3B
:100F8000E08709E0FFF704FCA0EB0A00A84202D3C7
:100F9000681C01D032E085B3E08F0028E4D11BE06B
:100FA00020688168C90709D0C068A16B0880A06B60
:100FB000801CA063E08F401EE0870AE0FFF7E8FB9B
:100FC000A0EB0A00A84203D3681C02D016E012E08E
:100FD0009DB1E08F0028E3D152462946204600F01B
:100FE00054FA08B12020606584F8519084F850804C
:100FF000606D00289FD001209DE7FFE784F85190A5
:1010000084F85080032096E72DE9F84F984616465D
:101010008A460446FFF7BCFB814694F8510001283C
:101020001ED1BAF1000F73D0002E71D094F8500089
:10103000012815D0012784F85070032084F851004E
:1010400000256565C4F830A0A686E686A563A58759
:10105000E58765642564A068B0F5004F03D00CE017
:101060000220BDE8F88F2068016821F0400101608E
:101070002068016841F480410160206801684906E8
:1010800003D4016841F040010160E068B0F5006FF1
:10109000606803D048B3012E27D047E008B1012E85
:1010A0001FD1206B21680088C86006E02068816835
:1010B000890709D5216B0988C160206B801C2063DA
:1010C000E08E401EE0860CE0FFF762FBA0EB09011A
:1010D000414503D3B8F1FF3F03D035E0B8F1000F2D
:1010E00032D0E08E0028E1D123E0206B2168007827
:1010F000087306E02068816889070AD5216B0978A2
:101100000173206B401C2063E08E401EE0860DE0E2
:101110002BE0FFF73DFBA0EB0901414503D3B8F1FC
:10112000FF3F03D010E0B8F1000F0DD0E08E002893
:10113000E0D14A464146204600F0D5F908B12020CA
:101140006065A06830B109E084F8517084F85050AF
:10115000032086E72068C1688068009084F8517099
:1011600004F8505F60680028F3D0012079E72DE98A
:10117000FF4F81B01D46934604464FF001090E9E75
:10118000FFF706FB074694F851006168012806D076
:10119000B1F5827F3CD1A168C9BB042838D102983F
:1011A000002871D0BBF1000FFBD0002DF9D094F8CE
:1011B000500001282CD04FF0010A84F850A094F878
:1011C0005100042802D0052084F851004FF0000897
:1011D000C4F85480C4F838B0E587A5870299216324
:1011E000E586A586C4F84080C4F84480206801687C
:1011F000490603D4016841F040010160E068B0F5A0
:10120000006F606808D0F0B3012D49D081E0FFE79E
:10121000022005B0BDE8F08F08B1012D39D1206B57
:1012200021680088C860206B801C2063E08E401E0F
:10123000E0862EE02068816889070FD5E18E69B1CC
:10124000B9F1010F0AD1216B0988C160206B801CA4
:101250002063E08E401EE0864FF000092068816820
:10126000C9070CD0E18F51B1C068A16B0880A06B99
:10127000801CA063E08F401EE0874FF00109FFF75C
:1012800087FAC01B01E00BE067E0B04201D3701C9D
:1012900050D1E08E0028CDD1E08F0028CAD13EE0A9
:1012A000206B216800780873206B401C2063E08E5F
:1012B000401EE0862DE02068816889070FD5E18E09
:1012C00069B1B9F1010F0AD1216B09780173206B63
:1012D000401C2063E08E401EE0864FF0000920682D
:1012E0008168C9070CD0E18F51B1C068A16B08704B
:1012F000A06B401CA063E08F401EE0874FF0010907
:10130000FFF746FAC01BB04202D3701C01D011E0B7
:1013100086B1E08E0028CED1E08F0028CBD13A46AE
:101320003146204600F0DFF850B12020606584F897
:10133000508012E084F851A084F85080032068E7C0
:10134000A06818B92068C1688068009084F851A02E
:1013500084F85080606D0028F1D0012059E710B565
:10136000401EB0F1807F01D3012010BD4FF0E0247A
:1013700060610F21601700F061F90020A061072073
:101380002061002010BDFEE710B586B0002000905F
:101390000190029003901648816941F0200181611B
:1013A000816901F020010491816941F004018161AA
:1013B000816901F004010491816941F008018161B2
:1013C00080690C4C00F00800049000221021204697
:1013D000FFF7D9F91020009001200221CDE9010189
:1013E000039169462046FFF7D9F806B010BD00000A
:1013F0000010024000080140104810B50E4901607D
:101400004FF48271416000218160C1604FF400722D
:101410000161C0E905122022C0E907214162816211
:101420000A21C162FFF790FC002803D0BDE81040FC
:10143000FFF79FB810BD00000030014018000020E9
:101440000F4810B50D4901604FF4827141600021D1
:101450008160C1604FF400720161C0E90512C16191
:101460000162416281620A21C162FFF76DFC0028BE
:1014700003D0BDE81040FFF77CB810BD0038004035
:1014800070000020FEE7FEE77047F8B504464068AC
:101490004FF48273984217D1A0684FF48065B0F57D
:1014A000004F01D0A8420FD12068066826F0400600
:1014B00006606068984207D1A068A84204D10092F3
:1014C0000B460022012103E000920B4600228021FE
:1014D000204600F023F8002804D0606D40F0200082
:1014E00060650320F8BDF8B515460E460B46009220
:1014F00004460122022100F011F840B933460022CF
:1015000080212046009500F009F8002804D0606D85
:1015100040F0200060650320F8BD00002DE9F8438D
:101520001E46914688460446089DFFF731F9401B48
:10153000351AFFF72DF9074625480068C0F3CB3070
:10154000684338E0701C37D0FFF722F9C01BA8426F
:1015500003D215B1009860B32CE02068416821F0F7
:10156000E00141606068B0F5827F0BD1A068B0F502
:10157000004F02D0B0F5806F04D12068016821F0DF
:1015800040010160A06AB0F5005F09D120680168E0
:1015900021F4005101602068016841F400510160AC
:1015A000012084F85100002084F850000320BDE899
:1015B000F8830025401E00902068816838EA010009
:1015C00004D000214945BDD10020F0E70121F9E711
:1015D000140000207047FFF7E1B830B58FB0282124
:1015E0006846FEF7F1FD14210AA8FEF7EDFD012182
:1015F0000804CDE900100024029402250491CDE9ED
:1016000007504FF4E01009906846FFF70DFA08B153
:1016100072B6FEE70F20CDE90A054FF48060CDE9F0
:101620000C4002210AA80E94FFF742F9002801D0CD
:1016300072B6FEE70FB030BD7047FEE70907090E2E
:10164000002804DB00F1E02080F80014704700F06F
:101650000F0000F1E02080F8141D70470EB5FFF771
:10166000A5F8FFF7BAFFFFF78FFEFFF7C5FEFFF7FC
:10167000E7FE114802A9006802901048FEF707FE35
:10168000642401250E4ECDE90054334602AA902170
:101690000A48FEF784FECDE90054334602AAA02191
:1016A0000648FEF77CFE6420FEF766FFFEF7B8FEF4
:1016B0000448FEF71BFFFEE7000000201800002092
:1016C000000C014000002040014800F02FB900BF8D
:1016D0000000C07F4FF47F0C1CEAD0121EBF1CEA32
:1016E000D11392EA0C0F93EA0C0F00F0858090EA78
:1016F000010F48BF42F4807240F4000C41F4000036
:101700002CF07F4120F07F4000B58142A2EB030224
:101710000FF2081CACEB504EC0F100009EF800E048
:101720004FEA4E0E00FB0EFC38BF49004FEA2C1C5E
:1017300002F5FA020CFB0EF34FEACE1E4FEA112C13
:101740004FEAC1210EEB635E42EB22420EFB0CFC22
:101750004FEA1C5300FB03114FEA112C4FEA0131F1
:101760000EFB0CFC4FEADC4C00FB0C11C14228BF05
:1017700009184CEB03335DF804EB10EB410143EB2C
:10178000C250B2F57C0F38BF704729D512F0F00F68
:101790001CBF00F1C04000F0004070470081828310
:1017A0008485868788898B8C8D8E8F919293959670
:1017B00097999A9C9D9FA0A2A3A5A7A8AAACAEB0FA
:1017C000B2B3B5B7B9BCBEC0C2C5C7C9CCCED1D4FF
:1017D000D7D9DCDFE2E6E9ECF0F3F7FAFE0000002F
:1017E0004FEA400C0CF1807CBCF17E4F28BF704763
:1017F000B0F1C04000F095B890EA010F0CEAD113A7
:1018000048BF42F48072624538BF634507D213F483
:101810007F0F16D080EA010000F00040704710B53D
:1018200000F039F8097EFC3E00F005B880EA0100BE
:1018300000F00040704780EA010000F0004000F036
:1018400070B812F47F0F04BF0248704780EA0100AD
:1018500000F067B80000C07FC10DD1F19E0206DB29
:101860004FEA002343F0004323FA02F0704700429E
:1018700007D54FEA4001B1F1FE4F02D24FF0000010
:10188000704710B500F007F8499224800020704797
:101890006FEA200070470EF1020E2EF0030E5EF884
:1018A000044B244204D44FEA4102B2F17F4F11D8D5
:1018B0004FEA4003B3F17F4F0CD80ED14FEAD07CF2
:1018C000B2F17F4F0CEB4C0C0CF1020C08BF4CEB4F
:1018D000D17C04E04FF0080C01E04FEAD17C0CEB26
:1018E0004C0324FA03F404F00704B4F1040C06D208
:1018F0000EEB840CBDE810404CF0010C6047DFE8B3
:101900000CF0070802024FF00040A0F5800010BD67
:101910000846420018BFD2F1807288BF00F0004034
:1019200010BDFF2141EAD050C00570470CF00F03F5
:10193000092B08BF082000F051800A2B0BD0082B80
:1019400018BF704708BF1CF0400F0AD04FF00000CE
:101950004FF0000170471CF0400F18BF4FF00040DF
:1019600070471CF0100F08D020F0704300F07F4249
:1019700042EAD3014FEA4370704700F0604021F023
:101980007F4242EA000201F07F4040EA72707047F5
:101990004FF0FF0212EAD0521CBF92F0FF038B42BD
:1019A000C2BFD14200EBC1507047002A0AD0002BC1
:1019B0000BD0002900F00040A4BF40F0FE4040F4EE
:1019C0000000704700F00040704743024FF00B0CDE
:1019D00018BF4CF0806C7FF477AE70471CF4801F0A
:1019E00011D01CF4E02F03D06FEACC3149007047CE
:1019F0004FF04050EFF3008222F0704242EA0002C2
:101A000082F3008870474FF0000070470102020324
:101A10000405060708090A0B0C0D0E0F1010000034
:101A2000000000000000010203040607080900008E
:101A3000501A0008000000201800000028010008CB
:101A4000681A000818000020100700004401000870
:101A50000004500000000000010000001000000021
:081A60000000000000127A00F2
:04000005080000ED02
:00000001FF
